{
  "contractName": "Cards",
  "abi": [
    {
      "inputs": [],
      "payable": false,
      "stateMutability": "nonpayable",
      "type": "constructor"
    },
    {
      "constant": true,
      "inputs": [],
      "name": "TOTAL_CARDS",
      "outputs": [
        {
          "internalType": "uint256",
          "name": "",
          "type": "uint256"
        }
      ],
      "payable": false,
      "stateMutability": "view",
      "type": "function"
    },
    {
      "constant": true,
      "inputs": [
        {
          "internalType": "uint256",
          "name": "",
          "type": "uint256"
        }
      ],
      "name": "cards",
      "outputs": [
        {
          "internalType": "uint256",
          "name": "price",
          "type": "uint256"
        },
        {
          "internalType": "address",
          "name": "owner",
          "type": "address"
        }
      ],
      "payable": false,
      "stateMutability": "view",
      "type": "function"
    },
    {
      "constant": true,
      "inputs": [],
      "name": "owner",
      "outputs": [
        {
          "internalType": "address",
          "name": "",
          "type": "address"
        }
      ],
      "payable": false,
      "stateMutability": "view",
      "type": "function"
    },
    {
      "constant": false,
      "inputs": [
        {
          "internalType": "uint256",
          "name": "_index",
          "type": "uint256"
        }
      ],
      "name": "buyCard",
      "outputs": [],
      "payable": true,
      "stateMutability": "payable",
      "type": "function"
    }
  ],
  "bytecode": "0x6080604052336000806101000a81548173ffffffffffffffffffffffffffffffffffffffff021916908373ffffffffffffffffffffffffffffffffffffffff16021790555034801561005057600080fd5b5060008090505b600a8110156100e25767016345785d8a0000600182600a811061007657fe5b60020201600001819055506000600182600a811061009057fe5b6002020160010160006101000a81548173ffffffffffffffffffffffffffffffffffffffff021916908373ffffffffffffffffffffffffffffffffffffffff1602179055508080600101915050610057565b5061031a806100f26000396000f3fe60806040526004361061003f5760003560e01c80637d41ebb0146100445780638da5cb5b1461006f5780638dc10768146100c6578063c70f5eaa14610148575b600080fd5b34801561005057600080fd5b50610059610176565b6040518082815260200191505060405180910390f35b34801561007b57600080fd5b5061008461017b565b604051808273ffffffffffffffffffffffffffffffffffffffff1673ffffffffffffffffffffffffffffffffffffffff16815260200191505060405180910390f35b3480156100d257600080fd5b506100ff600480360360208110156100e957600080fd5b81019080803590602001909291905050506101a0565b604051808381526020018273ffffffffffffffffffffffffffffffffffffffff1673ffffffffffffffffffffffffffffffffffffffff1681526020019250505060405180910390f35b6101746004803603602081101561015e57600080fd5b81019080803590602001909291905050506101e7565b005b600a81565b6000809054906101000a900473ffffffffffffffffffffffffffffffffffffffff1681565b600181600a81106101ad57fe5b600202016000915090508060000154908060010160009054906101000a900473ffffffffffffffffffffffffffffffffffffffff16905082565b600a811080156101f8575060008110155b61020157600080fd5b600073ffffffffffffffffffffffffffffffffffffffff16600182600a811061022657fe5b6002020160010160009054906101000a900473ffffffffffffffffffffffffffffffffffffffff1673ffffffffffffffffffffffffffffffffffffffff161461026e57600080fd5b600181600a811061027b57fe5b600202016000015434101561028f57600080fd5b33600182600a811061029d57fe5b6002020160010160006101000a81548173ffffffffffffffffffffffffffffffffffffffff021916908373ffffffffffffffffffffffffffffffffffffffff1602179055505056fea265627a7a7231582025d2ff035ec52a31d29add9c9823f9e285baccd3cf3e0eaf9ec8fb467d94ebfb64736f6c63430005100032",
  "source": "pragma solidity >=0.4.22 <0.9.0;\n\n\n\n\ncontract Cards {\n    address public owner = msg.sender;\n    uint256 constant public TOTAL_CARDS = 10;\n\n    struct Card {\n        uint256 price;\n        address owner;\n    }\n\n    Card[TOTAL_CARDS] public cards;\n\n    constructor() public {\n        for (uint256 i = 0; i < TOTAL_CARDS; i++) {\n            cards[i].price = 1e17; // 0.1 ETH\n            cards[i].owner = address(0x0);\n        } \n    }\n\n    function buyCard(uint256 _index) external payable {\n        require(_index < TOTAL_CARDS && _index >= 0);\n        require(cards[_index].owner == address(0x0));\n        require(msg.value >= cards[_index].price);\n        cards[_index].owner = msg.sender;\n    }\n}",
  "sourcePath": "/Users/matthewallen/Documents/Kingsland Blockchain/MI4 Course Files/indie-project/contracts/Cards.sol",
  "compiler": {
    "name": "solc",
    "version": "0.5.16+commit.9c3226ce.Emscripten.clang"
  },
  "schemaVersion": "3.4.3",
  "updatedAt": "2022-11-03T13:45:11.828Z",
  "networkType": "ethereum",
  "devdoc": {
    "methods": {}
  },
  "userdoc": {
    "methods": {}
  }
}